{
	"Lotterytest.sol": {
		"Lottery": {
			"abi": [
				{
					"inputs": [],
					"stateMutability": "nonpayable",
					"type": "constructor"
				},
				{
					"inputs": [],
					"name": "getBalance",
					"outputs": [
						{
							"internalType": "uint256",
							"name": "",
							"type": "uint256"
						}
					],
					"stateMutability": "view",
					"type": "function"
				},
				{
					"inputs": [],
					"name": "manager",
					"outputs": [
						{
							"internalType": "address",
							"name": "",
							"type": "address"
						}
					],
					"stateMutability": "view",
					"type": "function"
				},
				{
					"inputs": [
						{
							"internalType": "uint256",
							"name": "",
							"type": "uint256"
						}
					],
					"name": "participants",
					"outputs": [
						{
							"internalType": "address payable",
							"name": "",
							"type": "address"
						}
					],
					"stateMutability": "view",
					"type": "function"
				},
				{
					"inputs": [],
					"name": "random",
					"outputs": [
						{
							"internalType": "uint256",
							"name": "",
							"type": "uint256"
						}
					],
					"stateMutability": "nonpayable",
					"type": "function"
				},
				{
					"inputs": [],
					"name": "randomParticipant",
					"outputs": [
						{
							"internalType": "uint256",
							"name": "",
							"type": "uint256"
						}
					],
					"stateMutability": "view",
					"type": "function"
				},
				{
					"inputs": [],
					"name": "selectWinner",
					"outputs": [],
					"stateMutability": "nonpayable",
					"type": "function"
				},
				{
					"stateMutability": "payable",
					"type": "receive"
				}
			],
			"devdoc": {
				"kind": "dev",
				"methods": {},
				"version": 1
			},
			"evm": {
				"assembly": "    /* \"Lotterytest.sol\":74:1166  contract Lottery {\r... */\n  mstore(0x40, 0x80)\n    /* \"Lotterytest.sol\":216:268  constructor(){\r... */\n  callvalue\n  dup1\n  iszero\n  tag_1\n  jumpi\n  0x00\n  dup1\n  revert\ntag_1:\n  pop\n    /* \"Lotterytest.sol\":250:260  msg.sender */\n  caller\n    /* \"Lotterytest.sol\":240:247  manager */\n  0x00\n  dup1\n    /* \"Lotterytest.sol\":240:260  manager = msg.sender */\n  0x0100\n  exp\n  dup2\n  sload\n  dup2\n  0xffffffffffffffffffffffffffffffffffffffff\n  mul\n  not\n  and\n  swap1\n  dup4\n  0xffffffffffffffffffffffffffffffffffffffff\n  and\n  mul\n  or\n  swap1\n  sstore\n  pop\n    /* \"Lotterytest.sol\":74:1166  contract Lottery {\r... */\n  dataSize(sub_0)\n  dup1\n  dataOffset(sub_0)\n  0x00\n  codecopy\n  0x00\n  return\nstop\n\nsub_0: assembly {\n        /* \"Lotterytest.sol\":74:1166  contract Lottery {\r... */\n      mstore(0x40, 0x80)\n      jumpi(tag_1, lt(calldatasize, 0x04))\n      shr(0xe0, calldataload(0x00))\n      dup1\n      0x12065fe0\n      eq\n      tag_3\n      jumpi\n      dup1\n      0x33a99e04\n      eq\n      tag_4\n      jumpi\n      dup1\n      0x35c1d349\n      eq\n      tag_5\n      jumpi\n      dup1\n      0x481c6a75\n      eq\n      tag_6\n      jumpi\n      dup1\n      0x5ec01e4d\n      eq\n      tag_7\n      jumpi\n      dup1\n      0x90ae1b49\n      eq\n      tag_8\n      jumpi\n      jump(tag_2)\n    tag_1:\n      jumpi(tag_2, calldatasize)\n        /* \"Lotterytest.sol\":332:339  2 ether */\n      0x1bc16d674ec80000\n        /* \"Lotterytest.sol\":321:330  msg.value */\n      callvalue\n        /* \"Lotterytest.sol\":321:339  msg.value==2 ether */\n      eq\n        /* \"Lotterytest.sol\":313:340  require(msg.value==2 ether) */\n      tag_11\n      jumpi\n      0x00\n      dup1\n      revert\n    tag_11:\n        /* \"Lotterytest.sol\":351:363  participants */\n      0x01\n        /* \"Lotterytest.sol\":377:387  msg.sender */\n      caller\n        /* \"Lotterytest.sol\":351:389  participants.push(payable(msg.sender)) */\n      swap1\n      dup1\n      0x01\n      dup2\n      sload\n      add\n      dup1\n      dup3\n      sstore\n      dup1\n      swap2\n      pop\n      pop\n      0x01\n      swap1\n      sub\n      swap1\n      0x00\n      mstore\n      keccak256(0x00, 0x20)\n      add\n      0x00\n      swap1\n      swap2\n      swap1\n      swap2\n      swap1\n      swap2\n      0x0100\n      exp\n      dup2\n      sload\n      dup2\n      0xffffffffffffffffffffffffffffffffffffffff\n      mul\n      not\n      and\n      swap1\n      dup4\n      0xffffffffffffffffffffffffffffffffffffffff\n      and\n      mul\n      or\n      swap1\n      sstore\n      pop\n        /* \"Lotterytest.sol\":74:1166  contract Lottery {\r... */\n      stop\n    tag_2:\n      0x00\n      dup1\n      revert\n        /* \"Lotterytest.sol\":407:540  function getBalance() public view returns(uint){\r... */\n    tag_3:\n      callvalue\n      dup1\n      iszero\n      tag_13\n      jumpi\n      0x00\n      dup1\n      revert\n    tag_13:\n      pop\n      tag_14\n      tag_15\n      jump\t// in\n    tag_14:\n      mload(0x40)\n      tag_16\n      swap2\n      swap1\n      tag_17\n      jump\t// in\n    tag_16:\n      mload(0x40)\n      dup1\n      swap2\n      sub\n      swap1\n      return\n        /* \"Lotterytest.sol\":797:1163  function selectWinner() public{\r... */\n    tag_4:\n      callvalue\n      dup1\n      iszero\n      tag_18\n      jumpi\n      0x00\n      dup1\n      revert\n    tag_18:\n      pop\n      tag_19\n      tag_20\n      jump\t// in\n    tag_19:\n      stop\n        /* \"Lotterytest.sol\":127:164  address payable[] public participants */\n    tag_5:\n      callvalue\n      dup1\n      iszero\n      tag_21\n      jumpi\n      0x00\n      dup1\n      revert\n    tag_21:\n      pop\n      tag_22\n      0x04\n      dup1\n      calldatasize\n      sub\n      dup2\n      add\n      swap1\n      tag_23\n      swap2\n      swap1\n      tag_24\n      jump\t// in\n    tag_23:\n      tag_25\n      jump\t// in\n    tag_22:\n      mload(0x40)\n      tag_26\n      swap2\n      swap1\n      tag_27\n      jump\t// in\n    tag_26:\n      mload(0x40)\n      dup1\n      swap2\n      sub\n      swap1\n      return\n        /* \"Lotterytest.sol\":98:120  address public manager */\n    tag_6:\n      callvalue\n      dup1\n      iszero\n      tag_28\n      jumpi\n      0x00\n      dup1\n      revert\n    tag_28:\n      pop\n      tag_29\n      tag_30\n      jump\t// in\n    tag_29:\n      mload(0x40)\n      tag_31\n      swap2\n      swap1\n      tag_32\n      jump\t// in\n    tag_31:\n      mload(0x40)\n      dup1\n      swap2\n      sub\n      swap1\n      return\n        /* \"Lotterytest.sol\":548:789  function random() public returns(uint ){\r... */\n    tag_7:\n      callvalue\n      dup1\n      iszero\n      tag_33\n      jumpi\n      0x00\n      dup1\n      revert\n    tag_33:\n      pop\n      tag_34\n      tag_35\n      jump\t// in\n    tag_34:\n      mload(0x40)\n      tag_36\n      swap2\n      swap1\n      tag_17\n      jump\t// in\n    tag_36:\n      mload(0x40)\n      dup1\n      swap2\n      sub\n      swap1\n      return\n        /* \"Lotterytest.sol\":171:201  uint  public randomParticipant */\n    tag_8:\n      callvalue\n      dup1\n      iszero\n      tag_37\n      jumpi\n      0x00\n      dup1\n      revert\n    tag_37:\n      pop\n      tag_38\n      tag_39\n      jump\t// in\n    tag_38:\n      mload(0x40)\n      tag_40\n      swap2\n      swap1\n      tag_17\n      jump\t// in\n    tag_40:\n      mload(0x40)\n      dup1\n      swap2\n      sub\n      swap1\n      return\n        /* \"Lotterytest.sol\":407:540  function getBalance() public view returns(uint){\r... */\n    tag_15:\n        /* \"Lotterytest.sol\":449:453  uint */\n      0x00\n        /* \"Lotterytest.sol\":485:492  manager */\n      dup1\n      0x00\n      swap1\n      sload\n      swap1\n      0x0100\n      exp\n      swap1\n      div\n      0xffffffffffffffffffffffffffffffffffffffff\n      and\n        /* \"Lotterytest.sol\":473:492  msg.sender==manager */\n      0xffffffffffffffffffffffffffffffffffffffff\n      and\n        /* \"Lotterytest.sol\":473:483  msg.sender */\n      caller\n        /* \"Lotterytest.sol\":473:492  msg.sender==manager */\n      0xffffffffffffffffffffffffffffffffffffffff\n      and\n      eq\n        /* \"Lotterytest.sol\":465:493  require(msg.sender==manager) */\n      tag_42\n      jumpi\n      0x00\n      dup1\n      revert\n    tag_42:\n        /* \"Lotterytest.sol\":511:532  address(this).balance */\n      selfbalance\n        /* \"Lotterytest.sol\":504:532  return address(this).balance */\n      swap1\n      pop\n        /* \"Lotterytest.sol\":407:540  function getBalance() public view returns(uint){\r... */\n      swap1\n      jump\t// out\n        /* \"Lotterytest.sol\":797:1163  function selectWinner() public{\r... */\n    tag_20:\n        /* \"Lotterytest.sol\":861:868  manager */\n      0x00\n      dup1\n      sload\n      swap1\n      0x0100\n      exp\n      swap1\n      div\n      0xffffffffffffffffffffffffffffffffffffffff\n      and\n        /* \"Lotterytest.sol\":847:868  msg.sender == manager */\n      0xffffffffffffffffffffffffffffffffffffffff\n      and\n        /* \"Lotterytest.sol\":847:857  msg.sender */\n      caller\n        /* \"Lotterytest.sol\":847:868  msg.sender == manager */\n      0xffffffffffffffffffffffffffffffffffffffff\n      and\n      eq\n        /* \"Lotterytest.sol\":838:869  require (msg.sender == manager) */\n      tag_44\n      jumpi\n      0x00\n      dup1\n      revert\n    tag_44:\n        /* \"Lotterytest.sol\":912:913  3 */\n      0x03\n        /* \"Lotterytest.sol\":889:901  participants */\n      0x01\n        /* \"Lotterytest.sol\":889:908  participants.length */\n      dup1\n      sload\n      swap1\n      pop\n        /* \"Lotterytest.sol\":889:913  participants.length >= 3 */\n      lt\n      iszero\n        /* \"Lotterytest.sol\":880:914  require (participants.length >= 3) */\n      tag_45\n      jumpi\n      0x00\n      dup1\n      revert\n    tag_45:\n        /* \"Lotterytest.sol\":925:947  address payable winner */\n      0x00\n        /* \"Lotterytest.sol\":958:968  uint index */\n      dup1\n        /* \"Lotterytest.sol\":1014:1015  1 */\n      0x01\n        /* \"Lotterytest.sol\":992:1004  participants */\n      dup1\n        /* \"Lotterytest.sol\":992:1011  participants.length */\n      dup1\n      sload\n      swap1\n      pop\n        /* \"Lotterytest.sol\":971:988  randomParticipant */\n      sload(0x02)\n        /* \"Lotterytest.sol\":971:1011  randomParticipant %  participants.length */\n      tag_46\n      swap2\n      swap1\n      tag_47\n      jump\t// in\n    tag_46:\n        /* \"Lotterytest.sol\":971:1015  randomParticipant %  participants.length + 1 */\n      tag_48\n      swap2\n      swap1\n      tag_49\n      jump\t// in\n    tag_48:\n        /* \"Lotterytest.sol\":958:1015  uint index = randomParticipant %  participants.length + 1 */\n      swap1\n      pop\n        /* \"Lotterytest.sol\":1036:1048  participants */\n      0x01\n        /* \"Lotterytest.sol\":1049:1054  index */\n      dup2\n        /* \"Lotterytest.sol\":1036:1055  participants[index] */\n      dup2\n      sload\n      dup2\n      lt\n      tag_50\n      jumpi\n      tag_51\n      tag_52\n      jump\t// in\n    tag_51:\n    tag_50:\n      swap1\n      0x00\n      mstore\n      keccak256(0x00, 0x20)\n      add\n      0x00\n      swap1\n      sload\n      swap1\n      0x0100\n      exp\n      swap1\n      div\n      0xffffffffffffffffffffffffffffffffffffffff\n      and\n        /* \"Lotterytest.sol\":1027:1055  winner = participants[index] */\n      swap2\n      pop\n        /* \"Lotterytest.sol\":1066:1072  winner */\n      dup2\n        /* \"Lotterytest.sol\":1066:1081  winner.transfer */\n      0xffffffffffffffffffffffffffffffffffffffff\n      and\n        /* \"Lotterytest.sol\":1066:1095  winner.transfer(getBalance()) */\n      0x08fc\n        /* \"Lotterytest.sol\":1082:1094  getBalance() */\n      tag_54\n        /* \"Lotterytest.sol\":1082:1092  getBalance */\n      tag_15\n        /* \"Lotterytest.sol\":1082:1094  getBalance() */\n      jump\t// in\n    tag_54:\n        /* \"Lotterytest.sol\":1066:1095  winner.transfer(getBalance()) */\n      swap1\n      dup2\n      iszero\n      mul\n      swap1\n      mload(0x40)\n      0x00\n      mload(0x40)\n      dup1\n      dup4\n      sub\n      dup2\n      dup6\n      dup9\n      dup9\n      call\n      swap4\n      pop\n      pop\n      pop\n      pop\n      iszero\n      dup1\n      iszero\n      tag_56\n      jumpi\n      returndatasize\n      0x00\n      dup1\n      returndatacopy\n      revert(0x00, returndatasize)\n    tag_56:\n      pop\n        /* \"Lotterytest.sol\":1143:1144  0 */\n      0x00\n        /* \"Lotterytest.sol\":1121:1145  new address payable[](0) */\n      0xffffffffffffffff\n      dup2\n      gt\n      iszero\n      tag_57\n      jumpi\n      tag_58\n      tag_59\n      jump\t// in\n    tag_58:\n    tag_57:\n      mload(0x40)\n      swap1\n      dup1\n      dup3\n      mstore\n      dup1\n      0x20\n      mul\n      0x20\n      add\n      dup3\n      add\n      0x40\n      mstore\n      dup1\n      iszero\n      tag_60\n      jumpi\n      dup2\n      0x20\n      add\n      0x20\n      dup3\n      mul\n      dup1\n      calldatasize\n      dup4\n      calldatacopy\n      dup1\n      dup3\n      add\n      swap2\n      pop\n      pop\n      swap1\n      pop\n    tag_60:\n      pop\n        /* \"Lotterytest.sol\":1106:1118  participants */\n      0x01\n        /* \"Lotterytest.sol\":1106:1145  participants = new address payable[](0) */\n      swap1\n      dup1\n      mload\n      swap1\n      0x20\n      add\n      swap1\n      tag_61\n      swap3\n      swap2\n      swap1\n      tag_62\n      jump\t// in\n    tag_61:\n      pop\n        /* \"Lotterytest.sol\":827:1163  {\r... */\n      pop\n      pop\n        /* \"Lotterytest.sol\":797:1163  function selectWinner() public{\r... */\n      jump\t// out\n        /* \"Lotterytest.sol\":127:164  address payable[] public participants */\n    tag_25:\n      0x01\n      dup2\n      dup2\n      sload\n      dup2\n      lt\n      tag_63\n      jumpi\n      0x00\n      dup1\n      revert\n    tag_63:\n      swap1\n      0x00\n      mstore\n      keccak256(0x00, 0x20)\n      add\n      0x00\n      swap2\n      pop\n      sload\n      swap1\n      0x0100\n      exp\n      swap1\n      div\n      0xffffffffffffffffffffffffffffffffffffffff\n      and\n      dup2\n      jump\t// out\n        /* \"Lotterytest.sol\":98:120  address public manager */\n    tag_30:\n      0x00\n      dup1\n      sload\n      swap1\n      0x0100\n      exp\n      swap1\n      div\n      0xffffffffffffffffffffffffffffffffffffffff\n      and\n      dup2\n      jump\t// out\n        /* \"Lotterytest.sol\":548:789  function random() public returns(uint ){\r... */\n    tag_35:\n        /* \"Lotterytest.sol\":581:585  uint */\n      0x00\n        /* \"Lotterytest.sol\":618:625  manager */\n      dup1\n      0x00\n      swap1\n      sload\n      swap1\n      0x0100\n      exp\n      swap1\n      div\n      0xffffffffffffffffffffffffffffffffffffffff\n      and\n        /* \"Lotterytest.sol\":606:625  msg.sender==manager */\n      0xffffffffffffffffffffffffffffffffffffffff\n      and\n        /* \"Lotterytest.sol\":606:616  msg.sender */\n      caller\n        /* \"Lotterytest.sol\":606:625  msg.sender==manager */\n      0xffffffffffffffffffffffffffffffffffffffff\n      and\n      eq\n        /* \"Lotterytest.sol\":598:626  require(msg.sender==manager) */\n      tag_66\n      jumpi\n      0x00\n      dup1\n      revert\n    tag_66:\n        /* \"Lotterytest.sol\":689:705  block.difficulty */\n      difficulty\n        /* \"Lotterytest.sol\":707:722  block.timestamp */\n      timestamp\n        /* \"Lotterytest.sol\":724:736  participants */\n      0x01\n        /* \"Lotterytest.sol\":724:743  participants.length */\n      dup1\n      sload\n      swap1\n      pop\n        /* \"Lotterytest.sol\":672:744  abi.encodePacked(block.difficulty, block.timestamp, participants.length) */\n      add(0x20, mload(0x40))\n      tag_67\n      swap4\n      swap3\n      swap2\n      swap1\n      tag_68\n      jump\t// in\n    tag_67:\n      mload(0x40)\n      0x20\n      dup2\n      dup4\n      sub\n      sub\n      dup2\n      mstore\n      swap1\n      0x40\n      mstore\n        /* \"Lotterytest.sol\":662:745  keccak256(abi.encodePacked(block.difficulty, block.timestamp, participants.length)) */\n      dup1\n      mload\n      swap1\n      0x20\n      add\n      keccak256\n        /* \"Lotterytest.sol\":657:746  uint(keccak256(abi.encodePacked(block.difficulty, block.timestamp, participants.length))) */\n      0x00\n      shr\n        /* \"Lotterytest.sol\":637:654  randomParticipant */\n      0x02\n        /* \"Lotterytest.sol\":637:746  randomParticipant = uint(keccak256(abi.encodePacked(block.difficulty, block.timestamp, participants.length))) */\n      dup2\n      swap1\n      sstore\n      pop\n        /* \"Lotterytest.sol\":764:781  randomParticipant */\n      sload(0x02)\n        /* \"Lotterytest.sol\":757:781  return randomParticipant */\n      swap1\n      pop\n        /* \"Lotterytest.sol\":548:789  function random() public returns(uint ){\r... */\n      swap1\n      jump\t// out\n        /* \"Lotterytest.sol\":171:201  uint  public randomParticipant */\n    tag_39:\n      sload(0x02)\n      dup2\n      jump\t// out\n    tag_62:\n      dup3\n      dup1\n      sload\n      dup3\n      dup3\n      sstore\n      swap1\n      0x00\n      mstore\n      keccak256(0x00, 0x20)\n      swap1\n      dup2\n      add\n      swap3\n      dup3\n      iszero\n      tag_69\n      jumpi\n      swap2\n      0x20\n      mul\n      dup3\n      add\n    tag_70:\n      dup3\n      dup2\n      gt\n      iszero\n      tag_71\n      jumpi\n      dup3\n      mload\n      dup3\n      exp(0x0100, 0x00)\n      dup2\n      sload\n      dup2\n      0xffffffffffffffffffffffffffffffffffffffff\n      mul\n      not\n      and\n      swap1\n      dup4\n      0xffffffffffffffffffffffffffffffffffffffff\n      and\n      mul\n      or\n      swap1\n      sstore\n      pop\n      swap2\n      0x20\n      add\n      swap2\n      swap1\n      0x01\n      add\n      swap1\n      jump(tag_70)\n    tag_71:\n    tag_69:\n      pop\n      swap1\n      pop\n      tag_72\n      swap2\n      swap1\n      tag_73\n      jump\t// in\n    tag_72:\n      pop\n      swap1\n      jump\t// out\n    tag_73:\n    tag_74:\n      dup1\n      dup3\n      gt\n      iszero\n      tag_75\n      jumpi\n      0x00\n      dup2\n      0x00\n      swap1\n      sstore\n      pop\n      0x01\n      add\n      jump(tag_74)\n    tag_75:\n      pop\n      swap1\n      jump\t// out\n        /* \"#utility.yul\":7:146   */\n    tag_77:\n        /* \"#utility.yul\":53:58   */\n      0x00\n        /* \"#utility.yul\":91:97   */\n      dup2\n        /* \"#utility.yul\":78:98   */\n      calldataload\n        /* \"#utility.yul\":69:98   */\n      swap1\n      pop\n        /* \"#utility.yul\":107:140   */\n      tag_79\n        /* \"#utility.yul\":134:139   */\n      dup2\n        /* \"#utility.yul\":107:140   */\n      tag_80\n      jump\t// in\n    tag_79:\n        /* \"#utility.yul\":7:146   */\n      swap3\n      swap2\n      pop\n      pop\n      jump\t// out\n        /* \"#utility.yul\":152:481   */\n    tag_24:\n        /* \"#utility.yul\":211:217   */\n      0x00\n        /* \"#utility.yul\":260:262   */\n      0x20\n        /* \"#utility.yul\":248:257   */\n      dup3\n        /* \"#utility.yul\":239:246   */\n      dup5\n        /* \"#utility.yul\":235:258   */\n      sub\n        /* \"#utility.yul\":231:263   */\n      slt\n        /* \"#utility.yul\":228:347   */\n      iszero\n      tag_82\n      jumpi\n        /* \"#utility.yul\":266:345   */\n      tag_83\n      tag_84\n      jump\t// in\n    tag_83:\n        /* \"#utility.yul\":228:347   */\n    tag_82:\n        /* \"#utility.yul\":386:387   */\n      0x00\n        /* \"#utility.yul\":411:464   */\n      tag_85\n        /* \"#utility.yul\":456:463   */\n      dup5\n        /* \"#utility.yul\":447:453   */\n      dup3\n        /* \"#utility.yul\":436:445   */\n      dup6\n        /* \"#utility.yul\":432:454   */\n      add\n        /* \"#utility.yul\":411:464   */\n      tag_77\n      jump\t// in\n    tag_85:\n        /* \"#utility.yul\":401:464   */\n      swap2\n      pop\n        /* \"#utility.yul\":357:474   */\n      pop\n        /* \"#utility.yul\":152:481   */\n      swap3\n      swap2\n      pop\n      pop\n      jump\t// out\n        /* \"#utility.yul\":487:629   */\n    tag_86:\n        /* \"#utility.yul\":590:622   */\n      tag_88\n        /* \"#utility.yul\":616:621   */\n      dup2\n        /* \"#utility.yul\":590:622   */\n      tag_89\n      jump\t// in\n    tag_88:\n        /* \"#utility.yul\":585:588   */\n      dup3\n        /* \"#utility.yul\":578:623   */\n      mstore\n        /* \"#utility.yul\":487:629   */\n      pop\n      pop\n      jump\t// out\n        /* \"#utility.yul\":635:753   */\n    tag_90:\n        /* \"#utility.yul\":722:746   */\n      tag_92\n        /* \"#utility.yul\":740:745   */\n      dup2\n        /* \"#utility.yul\":722:746   */\n      tag_93\n      jump\t// in\n    tag_92:\n        /* \"#utility.yul\":717:720   */\n      dup3\n        /* \"#utility.yul\":710:747   */\n      mstore\n        /* \"#utility.yul\":635:753   */\n      pop\n      pop\n      jump\t// out\n        /* \"#utility.yul\":759:877   */\n    tag_94:\n        /* \"#utility.yul\":846:870   */\n      tag_96\n        /* \"#utility.yul\":864:869   */\n      dup2\n        /* \"#utility.yul\":846:870   */\n      tag_97\n      jump\t// in\n    tag_96:\n        /* \"#utility.yul\":841:844   */\n      dup3\n        /* \"#utility.yul\":834:871   */\n      mstore\n        /* \"#utility.yul\":759:877   */\n      pop\n      pop\n      jump\t// out\n        /* \"#utility.yul\":883:1040   */\n    tag_98:\n        /* \"#utility.yul\":988:1033   */\n      tag_100\n        /* \"#utility.yul\":1008:1032   */\n      tag_101\n        /* \"#utility.yul\":1026:1031   */\n      dup3\n        /* \"#utility.yul\":1008:1032   */\n      tag_97\n      jump\t// in\n    tag_101:\n        /* \"#utility.yul\":988:1033   */\n      tag_102\n      jump\t// in\n    tag_100:\n        /* \"#utility.yul\":983:986   */\n      dup3\n        /* \"#utility.yul\":976:1034   */\n      mstore\n        /* \"#utility.yul\":883:1040   */\n      pop\n      pop\n      jump\t// out\n        /* \"#utility.yul\":1046:1584   */\n    tag_68:\n        /* \"#utility.yul\":1214:1217   */\n      0x00\n        /* \"#utility.yul\":1229:1304   */\n      tag_104\n        /* \"#utility.yul\":1300:1303   */\n      dup3\n        /* \"#utility.yul\":1291:1297   */\n      dup7\n        /* \"#utility.yul\":1229:1304   */\n      tag_98\n      jump\t// in\n    tag_104:\n        /* \"#utility.yul\":1329:1331   */\n      0x20\n        /* \"#utility.yul\":1324:1327   */\n      dup3\n        /* \"#utility.yul\":1320:1332   */\n      add\n        /* \"#utility.yul\":1313:1332   */\n      swap2\n      pop\n        /* \"#utility.yul\":1342:1417   */\n      tag_105\n        /* \"#utility.yul\":1413:1416   */\n      dup3\n        /* \"#utility.yul\":1404:1410   */\n      dup6\n        /* \"#utility.yul\":1342:1417   */\n      tag_98\n      jump\t// in\n    tag_105:\n        /* \"#utility.yul\":1442:1444   */\n      0x20\n        /* \"#utility.yul\":1437:1440   */\n      dup3\n        /* \"#utility.yul\":1433:1445   */\n      add\n        /* \"#utility.yul\":1426:1445   */\n      swap2\n      pop\n        /* \"#utility.yul\":1455:1530   */\n      tag_106\n        /* \"#utility.yul\":1526:1529   */\n      dup3\n        /* \"#utility.yul\":1517:1523   */\n      dup5\n        /* \"#utility.yul\":1455:1530   */\n      tag_98\n      jump\t// in\n    tag_106:\n        /* \"#utility.yul\":1555:1557   */\n      0x20\n        /* \"#utility.yul\":1550:1553   */\n      dup3\n        /* \"#utility.yul\":1546:1558   */\n      add\n        /* \"#utility.yul\":1539:1558   */\n      swap2\n      pop\n        /* \"#utility.yul\":1575:1578   */\n      dup2\n        /* \"#utility.yul\":1568:1578   */\n      swap1\n      pop\n        /* \"#utility.yul\":1046:1584   */\n      swap5\n      swap4\n      pop\n      pop\n      pop\n      pop\n      jump\t// out\n        /* \"#utility.yul\":1590:1812   */\n    tag_32:\n        /* \"#utility.yul\":1683:1687   */\n      0x00\n        /* \"#utility.yul\":1721:1723   */\n      0x20\n        /* \"#utility.yul\":1710:1719   */\n      dup3\n        /* \"#utility.yul\":1706:1724   */\n      add\n        /* \"#utility.yul\":1698:1724   */\n      swap1\n      pop\n        /* \"#utility.yul\":1734:1805   */\n      tag_108\n        /* \"#utility.yul\":1802:1803   */\n      0x00\n        /* \"#utility.yul\":1791:1800   */\n      dup4\n        /* \"#utility.yul\":1787:1804   */\n      add\n        /* \"#utility.yul\":1778:1784   */\n      dup5\n        /* \"#utility.yul\":1734:1805   */\n      tag_90\n      jump\t// in\n    tag_108:\n        /* \"#utility.yul\":1590:1812   */\n      swap3\n      swap2\n      pop\n      pop\n      jump\t// out\n        /* \"#utility.yul\":1818:2072   */\n    tag_27:\n        /* \"#utility.yul\":1927:1931   */\n      0x00\n        /* \"#utility.yul\":1965:1967   */\n      0x20\n        /* \"#utility.yul\":1954:1963   */\n      dup3\n        /* \"#utility.yul\":1950:1968   */\n      add\n        /* \"#utility.yul\":1942:1968   */\n      swap1\n      pop\n        /* \"#utility.yul\":1978:2065   */\n      tag_110\n        /* \"#utility.yul\":2062:2063   */\n      0x00\n        /* \"#utility.yul\":2051:2060   */\n      dup4\n        /* \"#utility.yul\":2047:2064   */\n      add\n        /* \"#utility.yul\":2038:2044   */\n      dup5\n        /* \"#utility.yul\":1978:2065   */\n      tag_86\n      jump\t// in\n    tag_110:\n        /* \"#utility.yul\":1818:2072   */\n      swap3\n      swap2\n      pop\n      pop\n      jump\t// out\n        /* \"#utility.yul\":2078:2300   */\n    tag_17:\n        /* \"#utility.yul\":2171:2175   */\n      0x00\n        /* \"#utility.yul\":2209:2211   */\n      0x20\n        /* \"#utility.yul\":2198:2207   */\n      dup3\n        /* \"#utility.yul\":2194:2212   */\n      add\n        /* \"#utility.yul\":2186:2212   */\n      swap1\n      pop\n        /* \"#utility.yul\":2222:2293   */\n      tag_112\n        /* \"#utility.yul\":2290:2291   */\n      0x00\n        /* \"#utility.yul\":2279:2288   */\n      dup4\n        /* \"#utility.yul\":2275:2292   */\n      add\n        /* \"#utility.yul\":2266:2272   */\n      dup5\n        /* \"#utility.yul\":2222:2293   */\n      tag_94\n      jump\t// in\n    tag_112:\n        /* \"#utility.yul\":2078:2300   */\n      swap3\n      swap2\n      pop\n      pop\n      jump\t// out\n        /* \"#utility.yul\":2387:2692   */\n    tag_49:\n        /* \"#utility.yul\":2427:2430   */\n      0x00\n        /* \"#utility.yul\":2446:2466   */\n      tag_116\n        /* \"#utility.yul\":2464:2465   */\n      dup3\n        /* \"#utility.yul\":2446:2466   */\n      tag_97\n      jump\t// in\n    tag_116:\n        /* \"#utility.yul\":2441:2466   */\n      swap2\n      pop\n        /* \"#utility.yul\":2480:2500   */\n      tag_117\n        /* \"#utility.yul\":2498:2499   */\n      dup4\n        /* \"#utility.yul\":2480:2500   */\n      tag_97\n      jump\t// in\n    tag_117:\n        /* \"#utility.yul\":2475:2500   */\n      swap3\n      pop\n        /* \"#utility.yul\":2634:2635   */\n      dup3\n        /* \"#utility.yul\":2566:2632   */\n      0xffffffffffffffffffffffffffffffffffffffffffffffffffffffffffffffff\n        /* \"#utility.yul\":2562:2636   */\n      sub\n        /* \"#utility.yul\":2559:2560   */\n      dup3\n        /* \"#utility.yul\":2556:2637   */\n      gt\n        /* \"#utility.yul\":2553:2660   */\n      iszero\n      tag_118\n      jumpi\n        /* \"#utility.yul\":2640:2658   */\n      tag_119\n      tag_120\n      jump\t// in\n    tag_119:\n        /* \"#utility.yul\":2553:2660   */\n    tag_118:\n        /* \"#utility.yul\":2684:2685   */\n      dup3\n        /* \"#utility.yul\":2681:2682   */\n      dup3\n        /* \"#utility.yul\":2677:2686   */\n      add\n        /* \"#utility.yul\":2670:2686   */\n      swap1\n      pop\n        /* \"#utility.yul\":2387:2692   */\n      swap3\n      swap2\n      pop\n      pop\n      jump\t// out\n        /* \"#utility.yul\":2698:2794   */\n    tag_93:\n        /* \"#utility.yul\":2735:2742   */\n      0x00\n        /* \"#utility.yul\":2764:2788   */\n      tag_122\n        /* \"#utility.yul\":2782:2787   */\n      dup3\n        /* \"#utility.yul\":2764:2788   */\n      tag_123\n      jump\t// in\n    tag_122:\n        /* \"#utility.yul\":2753:2788   */\n      swap1\n      pop\n        /* \"#utility.yul\":2698:2794   */\n      swap2\n      swap1\n      pop\n      jump\t// out\n        /* \"#utility.yul\":2800:2904   */\n    tag_89:\n        /* \"#utility.yul\":2845:2852   */\n      0x00\n        /* \"#utility.yul\":2874:2898   */\n      tag_125\n        /* \"#utility.yul\":2892:2897   */\n      dup3\n        /* \"#utility.yul\":2874:2898   */\n      tag_123\n      jump\t// in\n    tag_125:\n        /* \"#utility.yul\":2863:2898   */\n      swap1\n      pop\n        /* \"#utility.yul\":2800:2904   */\n      swap2\n      swap1\n      pop\n      jump\t// out\n        /* \"#utility.yul\":2910:3036   */\n    tag_123:\n        /* \"#utility.yul\":2947:2954   */\n      0x00\n        /* \"#utility.yul\":2987:3029   */\n      0xffffffffffffffffffffffffffffffffffffffff\n        /* \"#utility.yul\":2980:2985   */\n      dup3\n        /* \"#utility.yul\":2976:3030   */\n      and\n        /* \"#utility.yul\":2965:3030   */\n      swap1\n      pop\n        /* \"#utility.yul\":2910:3036   */\n      swap2\n      swap1\n      pop\n      jump\t// out\n        /* \"#utility.yul\":3042:3119   */\n    tag_97:\n        /* \"#utility.yul\":3079:3086   */\n      0x00\n        /* \"#utility.yul\":3108:3113   */\n      dup2\n        /* \"#utility.yul\":3097:3113   */\n      swap1\n      pop\n        /* \"#utility.yul\":3042:3119   */\n      swap2\n      swap1\n      pop\n      jump\t// out\n        /* \"#utility.yul\":3125:3204   */\n    tag_102:\n        /* \"#utility.yul\":3164:3171   */\n      0x00\n        /* \"#utility.yul\":3193:3198   */\n      dup2\n        /* \"#utility.yul\":3182:3198   */\n      swap1\n      pop\n        /* \"#utility.yul\":3125:3204   */\n      swap2\n      swap1\n      pop\n      jump\t// out\n        /* \"#utility.yul\":3210:3386   */\n    tag_47:\n        /* \"#utility.yul\":3242:3243   */\n      0x00\n        /* \"#utility.yul\":3259:3279   */\n      tag_130\n        /* \"#utility.yul\":3277:3278   */\n      dup3\n        /* \"#utility.yul\":3259:3279   */\n      tag_97\n      jump\t// in\n    tag_130:\n        /* \"#utility.yul\":3254:3279   */\n      swap2\n      pop\n        /* \"#utility.yul\":3293:3313   */\n      tag_131\n        /* \"#utility.yul\":3311:3312   */\n      dup4\n        /* \"#utility.yul\":3293:3313   */\n      tag_97\n      jump\t// in\n    tag_131:\n        /* \"#utility.yul\":3288:3313   */\n      swap3\n      pop\n        /* \"#utility.yul\":3332:3333   */\n      dup3\n        /* \"#utility.yul\":3322:3357   */\n      tag_132\n      jumpi\n        /* \"#utility.yul\":3337:3355   */\n      tag_133\n      tag_134\n      jump\t// in\n    tag_133:\n        /* \"#utility.yul\":3322:3357   */\n    tag_132:\n        /* \"#utility.yul\":3378:3379   */\n      dup3\n        /* \"#utility.yul\":3375:3376   */\n      dup3\n        /* \"#utility.yul\":3371:3380   */\n      mod\n        /* \"#utility.yul\":3366:3380   */\n      swap1\n      pop\n        /* \"#utility.yul\":3210:3386   */\n      swap3\n      swap2\n      pop\n      pop\n      jump\t// out\n        /* \"#utility.yul\":3392:3572   */\n    tag_120:\n        /* \"#utility.yul\":3440:3517   */\n      0x4e487b7100000000000000000000000000000000000000000000000000000000\n        /* \"#utility.yul\":3437:3438   */\n      0x00\n        /* \"#utility.yul\":3430:3518   */\n      mstore\n        /* \"#utility.yul\":3537:3541   */\n      0x11\n        /* \"#utility.yul\":3534:3535   */\n      0x04\n        /* \"#utility.yul\":3527:3542   */\n      mstore\n        /* \"#utility.yul\":3561:3565   */\n      0x24\n        /* \"#utility.yul\":3558:3559   */\n      0x00\n        /* \"#utility.yul\":3551:3566   */\n      revert\n        /* \"#utility.yul\":3578:3758   */\n    tag_134:\n        /* \"#utility.yul\":3626:3703   */\n      0x4e487b7100000000000000000000000000000000000000000000000000000000\n        /* \"#utility.yul\":3623:3624   */\n      0x00\n        /* \"#utility.yul\":3616:3704   */\n      mstore\n        /* \"#utility.yul\":3723:3727   */\n      0x12\n        /* \"#utility.yul\":3720:3721   */\n      0x04\n        /* \"#utility.yul\":3713:3728   */\n      mstore\n        /* \"#utility.yul\":3747:3751   */\n      0x24\n        /* \"#utility.yul\":3744:3745   */\n      0x00\n        /* \"#utility.yul\":3737:3752   */\n      revert\n        /* \"#utility.yul\":3764:3944   */\n    tag_52:\n        /* \"#utility.yul\":3812:3889   */\n      0x4e487b7100000000000000000000000000000000000000000000000000000000\n        /* \"#utility.yul\":3809:3810   */\n      0x00\n        /* \"#utility.yul\":3802:3890   */\n      mstore\n        /* \"#utility.yul\":3909:3913   */\n      0x32\n        /* \"#utility.yul\":3906:3907   */\n      0x04\n        /* \"#utility.yul\":3899:3914   */\n      mstore\n        /* \"#utility.yul\":3933:3937   */\n      0x24\n        /* \"#utility.yul\":3930:3931   */\n      0x00\n        /* \"#utility.yul\":3923:3938   */\n      revert\n        /* \"#utility.yul\":3950:4130   */\n    tag_59:\n        /* \"#utility.yul\":3998:4075   */\n      0x4e487b7100000000000000000000000000000000000000000000000000000000\n        /* \"#utility.yul\":3995:3996   */\n      0x00\n        /* \"#utility.yul\":3988:4076   */\n      mstore\n        /* \"#utility.yul\":4095:4099   */\n      0x41\n        /* \"#utility.yul\":4092:4093   */\n      0x04\n        /* \"#utility.yul\":4085:4100   */\n      mstore\n        /* \"#utility.yul\":4119:4123   */\n      0x24\n        /* \"#utility.yul\":4116:4117   */\n      0x00\n        /* \"#utility.yul\":4109:4124   */\n      revert\n        /* \"#utility.yul\":4259:4376   */\n    tag_84:\n        /* \"#utility.yul\":4368:4369   */\n      0x00\n        /* \"#utility.yul\":4365:4366   */\n      dup1\n        /* \"#utility.yul\":4358:4370   */\n      revert\n        /* \"#utility.yul\":4382:4504   */\n    tag_80:\n        /* \"#utility.yul\":4455:4479   */\n      tag_143\n        /* \"#utility.yul\":4473:4478   */\n      dup2\n        /* \"#utility.yul\":4455:4479   */\n      tag_97\n      jump\t// in\n    tag_143:\n        /* \"#utility.yul\":4448:4453   */\n      dup2\n        /* \"#utility.yul\":4445:4480   */\n      eq\n        /* \"#utility.yul\":4435:4498   */\n      tag_144\n      jumpi\n        /* \"#utility.yul\":4494:4495   */\n      0x00\n        /* \"#utility.yul\":4491:4492   */\n      dup1\n        /* \"#utility.yul\":4484:4496   */\n      revert\n        /* \"#utility.yul\":4435:4498   */\n    tag_144:\n        /* \"#utility.yul\":4382:4504   */\n      pop\n      jump\t// out\n\n    auxdata: 0xa2646970667358221220a91d8f0dba373863d6d46ef4c9acaf1cd5a844a9036bdb8f2cf225ffa0f75a5864736f6c63430008070033\n}\n",
				"bytecode": {
					"linkReferences": {},
					"object": "608060405234801561001057600080fd5b50336000806101000a81548173ffffffffffffffffffffffffffffffffffffffff021916908373ffffffffffffffffffffffffffffffffffffffff16021790555061086b806100606000396000f3fe6080604052600436106100595760003560e01c806312065fe0146100dc57806333a99e041461010757806335c1d3491461011e578063481c6a751461015b5780635ec01e4d1461018657806390ae1b49146101b1576100d7565b366100d757671bc16d674ec80000341461007257600080fd5b6001339080600181540180825580915050600190039060005260206000200160009091909190916101000a81548173ffffffffffffffffffffffffffffffffffffffff021916908373ffffffffffffffffffffffffffffffffffffffff160217905550005b600080fd5b3480156100e857600080fd5b506100f16101dc565b6040516100fe9190610663565b60405180910390f35b34801561011357600080fd5b5061011c61023d565b005b34801561012a57600080fd5b506101456004803603810190610140919061057f565b6103be565b6040516101529190610648565b60405180910390f35b34801561016757600080fd5b506101706103fd565b60405161017d919061062d565b60405180910390f35b34801561019257600080fd5b5061019b610421565b6040516101a89190610663565b60405180910390f35b3480156101bd57600080fd5b506101c66104bd565b6040516101d39190610663565b60405180910390f35b60008060009054906101000a900473ffffffffffffffffffffffffffffffffffffffff1673ffffffffffffffffffffffffffffffffffffffff163373ffffffffffffffffffffffffffffffffffffffff161461023757600080fd5b47905090565b60008054906101000a900473ffffffffffffffffffffffffffffffffffffffff1673ffffffffffffffffffffffffffffffffffffffff163373ffffffffffffffffffffffffffffffffffffffff161461029557600080fd5b600360018054905010156102a857600080fd5b600080600180805490506002546102bf919061072c565b6102c9919061067e565b9050600181815481106102df576102de6107bb565b5b9060005260206000200160009054906101000a900473ffffffffffffffffffffffffffffffffffffffff1691508173ffffffffffffffffffffffffffffffffffffffff166108fc61032e6101dc565b9081150290604051600060405180830381858888f19350505050158015610359573d6000803e3d6000fd5b50600067ffffffffffffffff811115610375576103746107ea565b5b6040519080825280602002602001820160405280156103a35781602001602082028036833780820191505090505b50600190805190602001906103b99291906104c3565b505050565b600181815481106103ce57600080fd5b906000526020600020016000915054906101000a900473ffffffffffffffffffffffffffffffffffffffff1681565b60008054906101000a900473ffffffffffffffffffffffffffffffffffffffff1681565b60008060009054906101000a900473ffffffffffffffffffffffffffffffffffffffff1673ffffffffffffffffffffffffffffffffffffffff163373ffffffffffffffffffffffffffffffffffffffff161461047c57600080fd5b4442600180549050604051602001610496939291906105f0565b6040516020818303038152906040528051906020012060001c600281905550600254905090565b60025481565b82805482825590600052602060002090810192821561053c579160200282015b8281111561053b5782518260006101000a81548173ffffffffffffffffffffffffffffffffffffffff021916908373ffffffffffffffffffffffffffffffffffffffff160217905550916020019190600101906104e3565b5b509050610549919061054d565b5090565b5b8082111561056657600081600090555060010161054e565b5090565b6000813590506105798161081e565b92915050565b60006020828403121561059557610594610819565b5b60006105a38482850161056a565b91505092915050565b6105b5816106e6565b82525050565b6105c4816106d4565b82525050565b6105d381610718565b82525050565b6105ea6105e582610718565b610722565b82525050565b60006105fc82866105d9565b60208201915061060c82856105d9565b60208201915061061c82846105d9565b602082019150819050949350505050565b600060208201905061064260008301846105bb565b92915050565b600060208201905061065d60008301846105ac565b92915050565b600060208201905061067860008301846105ca565b92915050565b600061068982610718565b915061069483610718565b9250827fffffffffffffffffffffffffffffffffffffffffffffffffffffffffffffffff038211156106c9576106c861075d565b5b828201905092915050565b60006106df826106f8565b9050919050565b60006106f1826106f8565b9050919050565b600073ffffffffffffffffffffffffffffffffffffffff82169050919050565b6000819050919050565b6000819050919050565b600061073782610718565b915061074283610718565b9250826107525761075161078c565b5b828206905092915050565b7f4e487b7100000000000000000000000000000000000000000000000000000000600052601160045260246000fd5b7f4e487b7100000000000000000000000000000000000000000000000000000000600052601260045260246000fd5b7f4e487b7100000000000000000000000000000000000000000000000000000000600052603260045260246000fd5b7f4e487b7100000000000000000000000000000000000000000000000000000000600052604160045260246000fd5b600080fd5b61082781610718565b811461083257600080fd5b5056fea2646970667358221220a91d8f0dba373863d6d46ef4c9acaf1cd5a844a9036bdb8f2cf225ffa0f75a5864736f6c63430008070033",
					"opcodes": "PUSH1 0x80 PUSH1 0x40 MSTORE CALLVALUE DUP1 ISZERO PUSH2 0x10 JUMPI PUSH1 0x0 DUP1 REVERT JUMPDEST POP CALLER PUSH1 0x0 DUP1 PUSH2 0x100 EXP DUP2 SLOAD DUP2 PUSH20 0xFFFFFFFFFFFFFFFFFFFFFFFFFFFFFFFFFFFFFFFF MUL NOT AND SWAP1 DUP4 PUSH20 0xFFFFFFFFFFFFFFFFFFFFFFFFFFFFFFFFFFFFFFFF AND MUL OR SWAP1 SSTORE POP PUSH2 0x86B DUP1 PUSH2 0x60 PUSH1 0x0 CODECOPY PUSH1 0x0 RETURN INVALID PUSH1 0x80 PUSH1 0x40 MSTORE PUSH1 0x4 CALLDATASIZE LT PUSH2 0x59 JUMPI PUSH1 0x0 CALLDATALOAD PUSH1 0xE0 SHR DUP1 PUSH4 0x12065FE0 EQ PUSH2 0xDC JUMPI DUP1 PUSH4 0x33A99E04 EQ PUSH2 0x107 JUMPI DUP1 PUSH4 0x35C1D349 EQ PUSH2 0x11E JUMPI DUP1 PUSH4 0x481C6A75 EQ PUSH2 0x15B JUMPI DUP1 PUSH4 0x5EC01E4D EQ PUSH2 0x186 JUMPI DUP1 PUSH4 0x90AE1B49 EQ PUSH2 0x1B1 JUMPI PUSH2 0xD7 JUMP JUMPDEST CALLDATASIZE PUSH2 0xD7 JUMPI PUSH8 0x1BC16D674EC80000 CALLVALUE EQ PUSH2 0x72 JUMPI PUSH1 0x0 DUP1 REVERT JUMPDEST PUSH1 0x1 CALLER SWAP1 DUP1 PUSH1 0x1 DUP2 SLOAD ADD DUP1 DUP3 SSTORE DUP1 SWAP2 POP POP PUSH1 0x1 SWAP1 SUB SWAP1 PUSH1 0x0 MSTORE PUSH1 0x20 PUSH1 0x0 KECCAK256 ADD PUSH1 0x0 SWAP1 SWAP2 SWAP1 SWAP2 SWAP1 SWAP2 PUSH2 0x100 EXP DUP2 SLOAD DUP2 PUSH20 0xFFFFFFFFFFFFFFFFFFFFFFFFFFFFFFFFFFFFFFFF MUL NOT AND SWAP1 DUP4 PUSH20 0xFFFFFFFFFFFFFFFFFFFFFFFFFFFFFFFFFFFFFFFF AND MUL OR SWAP1 SSTORE POP STOP JUMPDEST PUSH1 0x0 DUP1 REVERT JUMPDEST CALLVALUE DUP1 ISZERO PUSH2 0xE8 JUMPI PUSH1 0x0 DUP1 REVERT JUMPDEST POP PUSH2 0xF1 PUSH2 0x1DC JUMP JUMPDEST PUSH1 0x40 MLOAD PUSH2 0xFE SWAP2 SWAP1 PUSH2 0x663 JUMP JUMPDEST PUSH1 0x40 MLOAD DUP1 SWAP2 SUB SWAP1 RETURN JUMPDEST CALLVALUE DUP1 ISZERO PUSH2 0x113 JUMPI PUSH1 0x0 DUP1 REVERT JUMPDEST POP PUSH2 0x11C PUSH2 0x23D JUMP JUMPDEST STOP JUMPDEST CALLVALUE DUP1 ISZERO PUSH2 0x12A JUMPI PUSH1 0x0 DUP1 REVERT JUMPDEST POP PUSH2 0x145 PUSH1 0x4 DUP1 CALLDATASIZE SUB DUP2 ADD SWAP1 PUSH2 0x140 SWAP2 SWAP1 PUSH2 0x57F JUMP JUMPDEST PUSH2 0x3BE JUMP JUMPDEST PUSH1 0x40 MLOAD PUSH2 0x152 SWAP2 SWAP1 PUSH2 0x648 JUMP JUMPDEST PUSH1 0x40 MLOAD DUP1 SWAP2 SUB SWAP1 RETURN JUMPDEST CALLVALUE DUP1 ISZERO PUSH2 0x167 JUMPI PUSH1 0x0 DUP1 REVERT JUMPDEST POP PUSH2 0x170 PUSH2 0x3FD JUMP JUMPDEST PUSH1 0x40 MLOAD PUSH2 0x17D SWAP2 SWAP1 PUSH2 0x62D JUMP JUMPDEST PUSH1 0x40 MLOAD DUP1 SWAP2 SUB SWAP1 RETURN JUMPDEST CALLVALUE DUP1 ISZERO PUSH2 0x192 JUMPI PUSH1 0x0 DUP1 REVERT JUMPDEST POP PUSH2 0x19B PUSH2 0x421 JUMP JUMPDEST PUSH1 0x40 MLOAD PUSH2 0x1A8 SWAP2 SWAP1 PUSH2 0x663 JUMP JUMPDEST PUSH1 0x40 MLOAD DUP1 SWAP2 SUB SWAP1 RETURN JUMPDEST CALLVALUE DUP1 ISZERO PUSH2 0x1BD JUMPI PUSH1 0x0 DUP1 REVERT JUMPDEST POP PUSH2 0x1C6 PUSH2 0x4BD JUMP JUMPDEST PUSH1 0x40 MLOAD PUSH2 0x1D3 SWAP2 SWAP1 PUSH2 0x663 JUMP JUMPDEST PUSH1 0x40 MLOAD DUP1 SWAP2 SUB SWAP1 RETURN JUMPDEST PUSH1 0x0 DUP1 PUSH1 0x0 SWAP1 SLOAD SWAP1 PUSH2 0x100 EXP SWAP1 DIV PUSH20 0xFFFFFFFFFFFFFFFFFFFFFFFFFFFFFFFFFFFFFFFF AND PUSH20 0xFFFFFFFFFFFFFFFFFFFFFFFFFFFFFFFFFFFFFFFF AND CALLER PUSH20 0xFFFFFFFFFFFFFFFFFFFFFFFFFFFFFFFFFFFFFFFF AND EQ PUSH2 0x237 JUMPI PUSH1 0x0 DUP1 REVERT JUMPDEST SELFBALANCE SWAP1 POP SWAP1 JUMP JUMPDEST PUSH1 0x0 DUP1 SLOAD SWAP1 PUSH2 0x100 EXP SWAP1 DIV PUSH20 0xFFFFFFFFFFFFFFFFFFFFFFFFFFFFFFFFFFFFFFFF AND PUSH20 0xFFFFFFFFFFFFFFFFFFFFFFFFFFFFFFFFFFFFFFFF AND CALLER PUSH20 0xFFFFFFFFFFFFFFFFFFFFFFFFFFFFFFFFFFFFFFFF AND EQ PUSH2 0x295 JUMPI PUSH1 0x0 DUP1 REVERT JUMPDEST PUSH1 0x3 PUSH1 0x1 DUP1 SLOAD SWAP1 POP LT ISZERO PUSH2 0x2A8 JUMPI PUSH1 0x0 DUP1 REVERT JUMPDEST PUSH1 0x0 DUP1 PUSH1 0x1 DUP1 DUP1 SLOAD SWAP1 POP PUSH1 0x2 SLOAD PUSH2 0x2BF SWAP2 SWAP1 PUSH2 0x72C JUMP JUMPDEST PUSH2 0x2C9 SWAP2 SWAP1 PUSH2 0x67E JUMP JUMPDEST SWAP1 POP PUSH1 0x1 DUP2 DUP2 SLOAD DUP2 LT PUSH2 0x2DF JUMPI PUSH2 0x2DE PUSH2 0x7BB JUMP JUMPDEST JUMPDEST SWAP1 PUSH1 0x0 MSTORE PUSH1 0x20 PUSH1 0x0 KECCAK256 ADD PUSH1 0x0 SWAP1 SLOAD SWAP1 PUSH2 0x100 EXP SWAP1 DIV PUSH20 0xFFFFFFFFFFFFFFFFFFFFFFFFFFFFFFFFFFFFFFFF AND SWAP2 POP DUP2 PUSH20 0xFFFFFFFFFFFFFFFFFFFFFFFFFFFFFFFFFFFFFFFF AND PUSH2 0x8FC PUSH2 0x32E PUSH2 0x1DC JUMP JUMPDEST SWAP1 DUP2 ISZERO MUL SWAP1 PUSH1 0x40 MLOAD PUSH1 0x0 PUSH1 0x40 MLOAD DUP1 DUP4 SUB DUP2 DUP6 DUP9 DUP9 CALL SWAP4 POP POP POP POP ISZERO DUP1 ISZERO PUSH2 0x359 JUMPI RETURNDATASIZE PUSH1 0x0 DUP1 RETURNDATACOPY RETURNDATASIZE PUSH1 0x0 REVERT JUMPDEST POP PUSH1 0x0 PUSH8 0xFFFFFFFFFFFFFFFF DUP2 GT ISZERO PUSH2 0x375 JUMPI PUSH2 0x374 PUSH2 0x7EA JUMP JUMPDEST JUMPDEST PUSH1 0x40 MLOAD SWAP1 DUP1 DUP3 MSTORE DUP1 PUSH1 0x20 MUL PUSH1 0x20 ADD DUP3 ADD PUSH1 0x40 MSTORE DUP1 ISZERO PUSH2 0x3A3 JUMPI DUP2 PUSH1 0x20 ADD PUSH1 0x20 DUP3 MUL DUP1 CALLDATASIZE DUP4 CALLDATACOPY DUP1 DUP3 ADD SWAP2 POP POP SWAP1 POP JUMPDEST POP PUSH1 0x1 SWAP1 DUP1 MLOAD SWAP1 PUSH1 0x20 ADD SWAP1 PUSH2 0x3B9 SWAP3 SWAP2 SWAP1 PUSH2 0x4C3 JUMP JUMPDEST POP POP POP JUMP JUMPDEST PUSH1 0x1 DUP2 DUP2 SLOAD DUP2 LT PUSH2 0x3CE JUMPI PUSH1 0x0 DUP1 REVERT JUMPDEST SWAP1 PUSH1 0x0 MSTORE PUSH1 0x20 PUSH1 0x0 KECCAK256 ADD PUSH1 0x0 SWAP2 POP SLOAD SWAP1 PUSH2 0x100 EXP SWAP1 DIV PUSH20 0xFFFFFFFFFFFFFFFFFFFFFFFFFFFFFFFFFFFFFFFF AND DUP2 JUMP JUMPDEST PUSH1 0x0 DUP1 SLOAD SWAP1 PUSH2 0x100 EXP SWAP1 DIV PUSH20 0xFFFFFFFFFFFFFFFFFFFFFFFFFFFFFFFFFFFFFFFF AND DUP2 JUMP JUMPDEST PUSH1 0x0 DUP1 PUSH1 0x0 SWAP1 SLOAD SWAP1 PUSH2 0x100 EXP SWAP1 DIV PUSH20 0xFFFFFFFFFFFFFFFFFFFFFFFFFFFFFFFFFFFFFFFF AND PUSH20 0xFFFFFFFFFFFFFFFFFFFFFFFFFFFFFFFFFFFFFFFF AND CALLER PUSH20 0xFFFFFFFFFFFFFFFFFFFFFFFFFFFFFFFFFFFFFFFF AND EQ PUSH2 0x47C JUMPI PUSH1 0x0 DUP1 REVERT JUMPDEST DIFFICULTY TIMESTAMP PUSH1 0x1 DUP1 SLOAD SWAP1 POP PUSH1 0x40 MLOAD PUSH1 0x20 ADD PUSH2 0x496 SWAP4 SWAP3 SWAP2 SWAP1 PUSH2 0x5F0 JUMP JUMPDEST PUSH1 0x40 MLOAD PUSH1 0x20 DUP2 DUP4 SUB SUB DUP2 MSTORE SWAP1 PUSH1 0x40 MSTORE DUP1 MLOAD SWAP1 PUSH1 0x20 ADD KECCAK256 PUSH1 0x0 SHR PUSH1 0x2 DUP2 SWAP1 SSTORE POP PUSH1 0x2 SLOAD SWAP1 POP SWAP1 JUMP JUMPDEST PUSH1 0x2 SLOAD DUP2 JUMP JUMPDEST DUP3 DUP1 SLOAD DUP3 DUP3 SSTORE SWAP1 PUSH1 0x0 MSTORE PUSH1 0x20 PUSH1 0x0 KECCAK256 SWAP1 DUP2 ADD SWAP3 DUP3 ISZERO PUSH2 0x53C JUMPI SWAP2 PUSH1 0x20 MUL DUP3 ADD JUMPDEST DUP3 DUP2 GT ISZERO PUSH2 0x53B JUMPI DUP3 MLOAD DUP3 PUSH1 0x0 PUSH2 0x100 EXP DUP2 SLOAD DUP2 PUSH20 0xFFFFFFFFFFFFFFFFFFFFFFFFFFFFFFFFFFFFFFFF MUL NOT AND SWAP1 DUP4 PUSH20 0xFFFFFFFFFFFFFFFFFFFFFFFFFFFFFFFFFFFFFFFF AND MUL OR SWAP1 SSTORE POP SWAP2 PUSH1 0x20 ADD SWAP2 SWAP1 PUSH1 0x1 ADD SWAP1 PUSH2 0x4E3 JUMP JUMPDEST JUMPDEST POP SWAP1 POP PUSH2 0x549 SWAP2 SWAP1 PUSH2 0x54D JUMP JUMPDEST POP SWAP1 JUMP JUMPDEST JUMPDEST DUP1 DUP3 GT ISZERO PUSH2 0x566 JUMPI PUSH1 0x0 DUP2 PUSH1 0x0 SWAP1 SSTORE POP PUSH1 0x1 ADD PUSH2 0x54E JUMP JUMPDEST POP SWAP1 JUMP JUMPDEST PUSH1 0x0 DUP2 CALLDATALOAD SWAP1 POP PUSH2 0x579 DUP2 PUSH2 0x81E JUMP JUMPDEST SWAP3 SWAP2 POP POP JUMP JUMPDEST PUSH1 0x0 PUSH1 0x20 DUP3 DUP5 SUB SLT ISZERO PUSH2 0x595 JUMPI PUSH2 0x594 PUSH2 0x819 JUMP JUMPDEST JUMPDEST PUSH1 0x0 PUSH2 0x5A3 DUP5 DUP3 DUP6 ADD PUSH2 0x56A JUMP JUMPDEST SWAP2 POP POP SWAP3 SWAP2 POP POP JUMP JUMPDEST PUSH2 0x5B5 DUP2 PUSH2 0x6E6 JUMP JUMPDEST DUP3 MSTORE POP POP JUMP JUMPDEST PUSH2 0x5C4 DUP2 PUSH2 0x6D4 JUMP JUMPDEST DUP3 MSTORE POP POP JUMP JUMPDEST PUSH2 0x5D3 DUP2 PUSH2 0x718 JUMP JUMPDEST DUP3 MSTORE POP POP JUMP JUMPDEST PUSH2 0x5EA PUSH2 0x5E5 DUP3 PUSH2 0x718 JUMP JUMPDEST PUSH2 0x722 JUMP JUMPDEST DUP3 MSTORE POP POP JUMP JUMPDEST PUSH1 0x0 PUSH2 0x5FC DUP3 DUP7 PUSH2 0x5D9 JUMP JUMPDEST PUSH1 0x20 DUP3 ADD SWAP2 POP PUSH2 0x60C DUP3 DUP6 PUSH2 0x5D9 JUMP JUMPDEST PUSH1 0x20 DUP3 ADD SWAP2 POP PUSH2 0x61C DUP3 DUP5 PUSH2 0x5D9 JUMP JUMPDEST PUSH1 0x20 DUP3 ADD SWAP2 POP DUP2 SWAP1 POP SWAP5 SWAP4 POP POP POP POP JUMP JUMPDEST PUSH1 0x0 PUSH1 0x20 DUP3 ADD SWAP1 POP PUSH2 0x642 PUSH1 0x0 DUP4 ADD DUP5 PUSH2 0x5BB JUMP JUMPDEST SWAP3 SWAP2 POP POP JUMP JUMPDEST PUSH1 0x0 PUSH1 0x20 DUP3 ADD SWAP1 POP PUSH2 0x65D PUSH1 0x0 DUP4 ADD DUP5 PUSH2 0x5AC JUMP JUMPDEST SWAP3 SWAP2 POP POP JUMP JUMPDEST PUSH1 0x0 PUSH1 0x20 DUP3 ADD SWAP1 POP PUSH2 0x678 PUSH1 0x0 DUP4 ADD DUP5 PUSH2 0x5CA JUMP JUMPDEST SWAP3 SWAP2 POP POP JUMP JUMPDEST PUSH1 0x0 PUSH2 0x689 DUP3 PUSH2 0x718 JUMP JUMPDEST SWAP2 POP PUSH2 0x694 DUP4 PUSH2 0x718 JUMP JUMPDEST SWAP3 POP DUP3 PUSH32 0xFFFFFFFFFFFFFFFFFFFFFFFFFFFFFFFFFFFFFFFFFFFFFFFFFFFFFFFFFFFFFFFF SUB DUP3 GT ISZERO PUSH2 0x6C9 JUMPI PUSH2 0x6C8 PUSH2 0x75D JUMP JUMPDEST JUMPDEST DUP3 DUP3 ADD SWAP1 POP SWAP3 SWAP2 POP POP JUMP JUMPDEST PUSH1 0x0 PUSH2 0x6DF DUP3 PUSH2 0x6F8 JUMP JUMPDEST SWAP1 POP SWAP2 SWAP1 POP JUMP JUMPDEST PUSH1 0x0 PUSH2 0x6F1 DUP3 PUSH2 0x6F8 JUMP JUMPDEST SWAP1 POP SWAP2 SWAP1 POP JUMP JUMPDEST PUSH1 0x0 PUSH20 0xFFFFFFFFFFFFFFFFFFFFFFFFFFFFFFFFFFFFFFFF DUP3 AND SWAP1 POP SWAP2 SWAP1 POP JUMP JUMPDEST PUSH1 0x0 DUP2 SWAP1 POP SWAP2 SWAP1 POP JUMP JUMPDEST PUSH1 0x0 DUP2 SWAP1 POP SWAP2 SWAP1 POP JUMP JUMPDEST PUSH1 0x0 PUSH2 0x737 DUP3 PUSH2 0x718 JUMP JUMPDEST SWAP2 POP PUSH2 0x742 DUP4 PUSH2 0x718 JUMP JUMPDEST SWAP3 POP DUP3 PUSH2 0x752 JUMPI PUSH2 0x751 PUSH2 0x78C JUMP JUMPDEST JUMPDEST DUP3 DUP3 MOD SWAP1 POP SWAP3 SWAP2 POP POP JUMP JUMPDEST PUSH32 0x4E487B7100000000000000000000000000000000000000000000000000000000 PUSH1 0x0 MSTORE PUSH1 0x11 PUSH1 0x4 MSTORE PUSH1 0x24 PUSH1 0x0 REVERT JUMPDEST PUSH32 0x4E487B7100000000000000000000000000000000000000000000000000000000 PUSH1 0x0 MSTORE PUSH1 0x12 PUSH1 0x4 MSTORE PUSH1 0x24 PUSH1 0x0 REVERT JUMPDEST PUSH32 0x4E487B7100000000000000000000000000000000000000000000000000000000 PUSH1 0x0 MSTORE PUSH1 0x32 PUSH1 0x4 MSTORE PUSH1 0x24 PUSH1 0x0 REVERT JUMPDEST PUSH32 0x4E487B7100000000000000000000000000000000000000000000000000000000 PUSH1 0x0 MSTORE PUSH1 0x41 PUSH1 0x4 MSTORE PUSH1 0x24 PUSH1 0x0 REVERT JUMPDEST PUSH1 0x0 DUP1 REVERT JUMPDEST PUSH2 0x827 DUP2 PUSH2 0x718 JUMP JUMPDEST DUP2 EQ PUSH2 0x832 JUMPI PUSH1 0x0 DUP1 REVERT JUMPDEST POP JUMP INVALID LOG2 PUSH5 0x6970667358 0x22 SLT KECCAK256 0xA9 SAR DUP16 0xD 0xBA CALLDATACOPY CODESIZE PUSH4 0xD6D46EF4 0xC9 0xAC 0xAF SHR 0xD5 0xA8 DIFFICULTY 0xA9 SUB PUSH12 0xDB8F2CF225FFA0F75A586473 PUSH16 0x6C634300080700330000000000000000 "
				},
				"gasEstimates": {
					"creation": {
						"codeDepositCost": "431000",
						"executionCost": "24734",
						"totalCost": "455734"
					},
					"external": {
						"getBalance()": "2487",
						"manager()": "2555",
						"participants(uint256)": "4978",
						"random()": "infinite",
						"randomParticipant()": "2517",
						"selectWinner()": "infinite"
					}
				},
				"methodIdentifiers": {
					"getBalance()": "12065fe0",
					"manager()": "481c6a75",
					"participants(uint256)": "35c1d349",
					"random()": "5ec01e4d",
					"randomParticipant()": "90ae1b49",
					"selectWinner()": "33a99e04"
				}
			},
			"storageLayout": {
				"storage": [
					{
						"astId": 3,
						"contract": "Lotterytest.sol:Lottery",
						"label": "manager",
						"offset": 0,
						"slot": "0",
						"type": "t_address"
					},
					{
						"astId": 6,
						"contract": "Lotterytest.sol:Lottery",
						"label": "participants",
						"offset": 0,
						"slot": "1",
						"type": "t_array(t_address_payable)dyn_storage"
					},
					{
						"astId": 8,
						"contract": "Lotterytest.sol:Lottery",
						"label": "randomParticipant",
						"offset": 0,
						"slot": "2",
						"type": "t_uint256"
					}
				],
				"types": {
					"t_address": {
						"encoding": "inplace",
						"label": "address",
						"numberOfBytes": "20"
					},
					"t_address_payable": {
						"encoding": "inplace",
						"label": "address payable",
						"numberOfBytes": "20"
					},
					"t_array(t_address_payable)dyn_storage": {
						"base": "t_address_payable",
						"encoding": "dynamic_array",
						"label": "address payable[]",
						"numberOfBytes": "32"
					},
					"t_uint256": {
						"encoding": "inplace",
						"label": "uint256",
						"numberOfBytes": "32"
					}
				}
			},
			"userdoc": {
				"kind": "user",
				"methods": {},
				"version": 1
			}
		}
	}
}